:100000000C9434000C9451000C9451000C94510049
:100010000C9451000C9451000C9451000C9451001C
:100020000C9451000C9451000C9451000C9451000C
:100030000C9451000C9451000C9451000C945100FC
:100040000C9451000C9451000C9451000C945100EC
:100050000C9451000C9451000C9451000C945100DC
:100060000C9451000C94510011241FBECFEFD8E026
:10007000DEBFCDBF12E0A0E0B1E0E8E3FDE002C0EA
:1000800005900D92A030B107D9F722E0A0E0B2E0D0
:1000900001C01D92A730B207E1F70E9420020C9424
:1000A0009A060C9400001092C5008FEC8093C40057
:1000B000E0ECF0E080818260808388E08093C10082
:1000C00086E08093C20008959091C00095FFFCCF18
:1000D0008093C6000895CF93DF93EC018991882324
:1000E00049F00E9464008FE39FE10197F1F700C09F
:1000F0000000F4CFDF91CF9108958DE00E9464005D
:100100008AE00C9464005B9A80FF02C05C9A01C094
:100110005C9881FF02C05D9A01C05D9882FF02C0B9
:100120005E9A01C05E9883FF02C05F9A01C05F982B
:1001300085E08A95F1F700005B9885E08A95F1F7F4
:1001400000000895CF93C82F82958F700E9483007E
:100150008C2FCF910C9483005A980E94A2008FE8B4
:1001600091E00197F1F700C0000008955A9A0E94AB
:10017000A2008FE891E00197F1F700C00000089518
:10018000549A559A569A579A539A529A8FE19EE4E6
:100190000197F1F700C0000083E00E9483008FE91F
:1001A0009FE00197F1F700C0000083E00E94830008
:1001B0008FE99FE00197F1F700C0000083E00E9403
:1001C00083008FE99FE00197F1F700C0000082E013
:1001D0000E9483008FE99FE00197F1F700C00000C3
:1001E00088E20E94AC008FE99FE00197F1F700C020
:1001F000000081E00E94AC008FE99FE00197F1F7D9
:1002000000C0000086E00E94AC008FE99FE00197EB
:10021000F1F700C000008CE00E94AC008FE99FE085
:100220000197F1F700C00000089581E00E94AC0042
:1002300082E00C94AC00613011F090E801C090ECC9
:10024000892B0C94AC000F931F93CF93DF93EC0199
:100250008C0107511C4F8991882331F0C017D107B9
:1002600019F00E94B600F7CFDF91CF911F910F9147
:1002700008950F931F93CF93DF93CDB7DEB7A89761
:100280000FB6F894DEBF0FBECDBFAE01415D5F4F2C
:10029000FA0161917191AF01CE0101960E94A6030E
:1002A0008C01CE0101960E942301C801A8960FB6C9
:1002B000F894DEBF0FBECDBFDF91CF911F910F919C
:1002C0000895209A28982FEF89EF90E021508040E0
:1002D0009040E1F700C00000289A08952098289ADD
:1002E0001899FECF189BFECF1899FECF089528E0ED
:1002F00030E0189BFECF80EA8A95F1F780910002EA
:10030000880F18998160809300021899FECF2150C0
:10031000310979F78091000208950E9461010E94DD
:100320006E010E947701809302020E947701809300
:1003300006020E947701809303020E947701809356
:1003400004020E947701809301020895CF93DF9306
:10035000CDB7DEB7C055D1090FB6F894DEBF0FBEDA
:10036000CDBF80E5E3E3F1E0DE01119601900D924F
:100370008A95E1F7CE0101960E946B000E947D00F4
:100380008AE091E00E946B000E947D008FE191E085
:100390000E946B000E947D00C05BDF4F0FB6F89497
:1003A000DEBF0FBECDBFDF91CF9108950E94150132
:1003B0000E94C00060E080E00E941B0183E891E0A1
:1003C0009F938F930E94390161E080E00E941B019E
:1003D0008CE891E09F938F930E9439010F900F90CA
:1003E0000F900F900895E0EBF0E09081906890837B
:1003F000908191609083908192609083E1EBF0E036
:100400009081946090838093B300239A2B9A0895EF
:10041000E0EBF0E09081906890839081906490830D
:10042000908191609083908192609083E1EBF0E005
:100430009081946090838093B300239A2B9A0895BF
:10044000CF93DF93CDB7DEB72A970FB6F894DEBF10
:100450000FBECDBF0E9453000E94A6010E94D6018C
:100460008E010A5F1F4FCE0101967C0193EBC92ECE
:1004700091E0D92E25E0222E21E0322E3BEC432EB6
:1004800031E0532E46E9642E41E0742E55EA852E64
:1004900051E0952E199B2BC10E948D0120910202E3
:1004A0008091060290E0820F911D20910302820F3D
:1004B000911D20910402820F911D2091010230E0D4
:1004C00082179307E1F160E080E00E941B017F92B8
:1004D0006F920E94390161E080E00E941B019F92AF
:1004E0008F920E9439018EE991E00E946B000E9478
:1004F0007D000F900F900F900F9086E0A82EB12CEA
:100500008CE390E00E9408029FEF29E688E1915079
:1005100020408040E1F700C0000088EE93E00E9498
:1005200008029FEF29E688E1915020408040E1F7E2
:1005300000C0000091E0A91AB10811F7C0C027EF70
:1005400025B9809102028E3120F48AE090E00E9469
:10055000F301809102028E51843120F48CE390E00B
:100560000E94F301809102028253843120F488E7D3
:1005700090E00E94F3018091020286548B3020F4B7
:1005800080EA90E00E94F301809102028155893057
:1005900020F484EB90E00E94F301809102028A55DE
:1005A0008C3020F481EE90E00E94F30180910202F1
:1005B0004AE0B80190E00E948103809106024AE07F
:1005C000B70190E00E94810360E080E00E941B017F
:1005D00080E091E09F938F930E94390160E084E076
:1005E0000E941B011F930F930E943901DF92CF924B
:1005F0000E943901FF92EF920E94390185EB91E050
:100600009F938F930E9439018CEB91E00E946B00C5
:100610000E947D00C8010E946B0083EB91E00E9464
:100620006B00C7010E946B0089EC91E00E946B0097
:100630000E947D00809103024AE0B80190E00E9490
:100640008103809104024AE0B70190E00E94810397
:1006500061E080E00E941B013F922F920E943901CD
:1006600061E084E00E941B011F930F930E943901F7
:10067000DF92CF920E943901FF92EF920E943901DE
:100680005F924F920E94390182ED91E00E946B00CF
:100690000E947D00C8010E946B0083EB91E00E94E4
:1006A0006B00C7010E946B0086EF91E00E946B0017
:1006B0000E947D000FB6F894DEBF0FBECDBF98EC50
:1006C00090930502229A2A9A2FEF89E698E1215009
:1006D00080409040E1F700C000002A982FEF89E6A3
:1006E00098E1215080409040E1F700C000002FEFDA
:1006F00089E698E1215080409040E1F700C0000079
:10070000C9CEBB274A3031F4992322F4BDE290953B
:1007100081959F4F0C948D03BB27FB015527AA277A
:10072000880F991FAA1FA41710F0A41B839550517E
:10073000B9F7A05DAA3308F0A95DA193009779F7F6
:10074000B111B1931192CB010C94B905AEE0B0E0B8
:10075000ECEAF3E00C9471068C0186E08C831A833A
:1007600009838FEF9FE79E838D83CE0101960E94C0
:10077000C203EF81F885E00FF11F10822E96E4E0AE
:100780000C948D06ABE0B0E0E8ECF3E00C9463066B
:100790006C017B018A01FC0117821682838181FF33
:1007A000CCC1CE0101963C01F6019381F70193FD86
:1007B000859193FF81917F01882309F4BAC1853225
:1007C00039F493FD859193FF81917F01853229F45E
:1007D000B60190E00E94C905E7CF912C212C312C65
:1007E000FFE1F315D8F08B3279F038F4803279F0EC
:1007F0008332A1F4232D20611DC08D3261F080333E
:1008000069F4232D216016C0832D8260382EE32DDC
:10081000E4603E2E2AC0F32DF8601DC037FC2DC0C9
:1008200020ED280F2A3040F08E32B9F436FC81C119
:10083000232D2064322E19C036FE06C08AE0989E11
:10084000200D1124922E11C0EAE02E9E200D1124BD
:10085000222EF32DF0623F2E08C08C3621F4832D1A
:100860008068382E02C0883641F4F70193FD8591E7
:1008700093FF81917F018111B3CF982F9F7D955474
:10088000933028F40C5F1F4F9FE399830DC083368C
:1008900031F0833771F0833509F059C021C0F80178
:1008A000808189830E5F1F4F88248394912C53018C
:1008B00013C02801F2E04F0E511CF801A080B18056
:1008C00036FE03C0692D70E002C06FEF7FEFC501F7
:1008D0000E94AE054C018201F32DFF773F2E16C01A
:1008E000280122E0420E511CF801A080B18036FEA2
:1008F00003C0692D70E002C06FEF7FEFC5010E9459
:10090000A3054C01F32DF0683F2E820133FC1BC080
:10091000822D90E088169906B0F4B60180E290E04E
:100920000E94C9052A94F4CFF50137FC859137FE62
:1009300081915F01B60190E00E94C90521102A94BF
:1009400021E0821A91088114910471F7E8C084367D
:1009500011F0893641F5F80137FE07C060817181D9
:10096000828193810C5F1F4F08C060817181072EC7
:10097000000C880B990B0E5F1F4FF32DFF763F2E57
:1009800097FF09C090958095709561957F4F8F4F27
:100990009F4FF0683F2E2AE030E0A3010E94050639
:1009A000882E861845C0853731F4232D2F7EB22E30
:1009B0002AE030E025C0932D997FB92E8F36C1F003
:1009C00018F4883579F0B5C0803719F0883721F0F0
:1009D000B0C0E92FE061BE2EB4FE0DC0FB2DF46067
:1009E000BF2E09C034FE0AC0292F2660B22E06C0D1
:1009F00028E030E005C020E130E002C020E132E034
:100A0000F801B7FE07C060817181828193810C5F1C
:100A10001F4F06C06081718180E090E00E5F1F4F24
:100A2000A3010E940506882E8618FB2DFF773F2E16
:100A300036FE0DC0232D2E7FA22E891458F434FECD
:100A40000BC032FC09C0832D8E7EA82E05C0B82CA9
:100A5000A32C03C0B82C01C0B92CA4FE0FC0FE010A
:100A6000E80DF11D8081803321F49A2D997EA92E05
:100A700009C0A2FE06C0B394B39404C08A2D867840
:100A800009F0B394A3FC11C0A0FE06C0B21488F410
:100A9000280C922C9B180EC0B21460F4B60180E2B0
:100AA00090E00E94C905B394F7CFB21418F42B1844
:100AB00002C0982C212CA4FE10C0B60180E390E067
:100AC0000E94C905A2FE17C0A1FC03C088E790E000
:100AD00002C088E590E0B6010CC08A2D867859F0F6
:100AE000A1FE02C08BE201C080E2A7FC8DE2B6014C
:100AF00090E00E94C905891438F4B60180E390E0C3
:100B00000E94C9059A94F7CF8A94F301E80DF11D6C
:100B10008081B60190E00E94C9058110F5CF2220A6
:100B200009F442CEB60180E290E00E94C9052A9401
:100B3000F6CFF6018681978102C08FEF9FEF2B964B
:100B4000E2E10C947F06FC010590615070400110B9
:100B5000D8F7809590958E0F9F1F0895FC016150E6
:100B6000704001900110D8F7809590958E0F9F1FCF
:100B70000895DC01FC01672F71917723E1F732972B
:100B800004C07C916D9370836291AE17BF07C8F368
:100B900008950F931F93CF93DF93FB01238121FDD2
:100BA00003C08FEF9FEF2CC022FF16C046815781F4
:100BB000248135814217530744F4A081B1819D01FE
:100BC0002F5F3F4F318320838C93268137812F5FA6
:100BD0003F4F3783268314C08B01EC01FB01008457
:100BE000F185E02D0995892BE1F6D80116968D91B6
:100BF0009C911797019617969C938E931697CE010A
:100C0000DF91CF911F910F910895FA01AA27283003
:100C100051F1203181F1E8946F936E7F6E5F7F4FC9
:100C20008F4F9F4FAF4FB1E03ED0B4E03CD0670F45
:100C3000781F891F9A1FA11D680F791F8A1F911D98
:100C4000A11D6A0F711D811D911DA11D20D009F4E8
:100C500068943F912AE0269F11243019305D31932A
:100C6000DEF6CF010895462F4770405D4193B3E013
:100C70000FD0C9F7F6CF462F4F70405D4A3318F0BA
:100C8000495D31FD4052419302D0A9F7EACFB4E06B
:100C9000A6959795879577956795BA95C9F7009723
:100CA0006105710508959B01AC010A2E06945795C4
:100CB000479537952795BA95C9F7620F731F841F1B
:100CC000951FA01D08952F923F924F925F926F92B1
:100CD0007F928F929F92AF92BF92CF92DF92EF92CC
:100CE000FF920F931F93CF93DF93CDB7DEB7CA1B4D
:100CF000DB0B0FB6F894DEBF0FBECDBF09942A8878
:100D0000398848885F846E847D848C849B84AA841F
:100D1000B984C884DF80EE80FD800C811B81AA81AC
:100D2000B981CE0FD11D0FB6F894DEBF0FBECDBF77
:080D3000ED010895F894FFCFD6
:100D380057203D200054203D200057796B6F6E618D
:100D48006C204A616B7562204E796B69656C00573F
:100D58006369736E696A2070727A796369736B204C
:100D680053310050726F6A656B7420637A756A6ECE
:100D7800696B612074656D70657261747572792034
:100D8800692077696C676F746E6F7363692C206B69
:100D9800746F7279206D6F7A6520627963207A6149
:100DA8006D6F6E746F77616E792077205361756E01
:100DB800696500576369736E696A200050727A79B1
:100DC8006369736B2000204572726F722000457250
:100DD800726F72202D206272616B20706F6D696175
:100DE8007275002E005B50726F635D002057494C8E
:100DF800474F4320572025200025005B73742E435E
:100E08005D002054656D706572617475726120575C
:100E18002073746F706E696163682043656C736AD0
:100E280075737A612000205B73742E20435D000087
:00000001FF
